:100000000C9434000C943E000C943E000C943E0082
:100010000C943E000C943E000C943E000C943E0068
:100020000C943E000C943E000C943E000C943E0058
:100030000C943E000C943E000C943E000C943E0048
:100040000C943E000C943E000C943E000C943E0038
:100050000C943E000C943E000C943E000C943E0028
:100060000C943E000C943E0011241FBECFEFD8E04C
:10007000DEBFCDBF0E9440000C9468000C940000CD
:10008000529A539A549A559A50981092C5008DE4FA
:100090008093C40080E18093C1008091C20086609B
:1000A0008093C2008091C00084FF10C05A9A809152
:1000B000C00087FD8091C6002FEF89EF90E02150AE
:1000C00080409040E1F700C00000ECCF5A98EFCF9D
:0400D000F894FFCFD2
:00000001FF
