:100000000C9434000C9451000C9451000C94510049
:100010000C9451000C9451000C9451000C9451001C
:100020000C9451000C9451000C9451000C9451000C
:100030000C9451000C9451000C9453000C945100FA
:100040000C9451000C9451000C9464000C945100D9
:100050000C9451000C9451000C9451000C945100DC
:100060000C9451000C94510011241FBECFEFD8E026
:10007000DEBFCDBF11E0A0E0B1E0E0EAF4E002C0F5
:1000800005900D92A830B107D9F721E0A8E0B1E0C2
:1000900001C01D92A631B207E1F70E947D000C94C9
:1000A0004E020C9400001F920F920FB60F92112473
:1000B0008F93809115018F5F809315018F910F9021
:1000C0000FBE0F901F9018951F920F920FB60F92B0
:1000D00011248F939F938091C600909109019817E6
:1000E00029F08093090181E080930A019F918F910B
:1000F0000F900FBE0F901F901895E3E0F1E041E0E4
:1001000050E061E0E830F60709F071C0219A229AC8
:10011000239A80918000806A809380008091800083
:10012000816080938000809181008860809381004D
:10013000809181008560809381008091B00080680B
:100140008093B0008091B00083608093B000809174
:10015000B10087608093B1001092C50087E680935C
:10016000C40080E98093C1008EE08093C20078943F
:100170008EE1C82EC4EBD0E09AE5B92E21E007E06D
:1001800011E0EE24E394F12C32E043E054E0D52E6C
:1001900065E0A62E77E0872EE8E07E2EF9E09F2E20
:1001A000A6E06A2E80911501863008F46CC010928A
:1001B00015018091080190911401891710F0209386
:1001C0000801E0910801F0E0E55FFE4FE081E930D1
:1001D000F0F4F0E0E251FF4F0C94340201010D0104
:1001E0005B01700178018A019501AA01B2018AB10F
:1001F00091919A0101C0220F9A95EAF7822B8AB950
:1002000080CFB0920001B0920101B09202018091C2
:1002100008018F5F8093080109C0809101018F5F01
:100220008093010180910101893688F78091000156
:10023000853B60F48C9DC0011124BE010E94200208
:10024000685F7F4F7093890060938800E09102019E
:10025000E53B70F4809101018C9DC0011124BE0129
:100260000E942002685F7F4F70938B0060938A002A
:10027000E53B48F4EC9DC0011124BE010E94200220
:10028000685F6093B30080910A01882309F48ACFE4
:10029000E3E0F1E00E171F0709F476C05BB181912E
:1002A000B70102C0660F771F8A95E2F7CB018095F0
:1002B00085238BB9EFCF809100018F5F8093000180
:1002C00080910201815080930201809102018E325F
:1002D00008F0ACCF80910001873808F4A7CF97CF02
:1002E00080910101815080930101809101018FCFA4
:1002F00080910001815080930001809102018F5F05
:1003000080930201809100018E3208F08FCF80919E
:100310000201E2CF8091010181508093010180911F
:1003200001018B3508F082CF72CF8091000181509E
:1003300080930001809102018F5F80930201809180
:1003400000018B3508F072CF809102018A3508F4E4
:100350006DCF5DCF809101018F5F8093010180910E
:100360000101F4CF809100018F5F809300018091A3
:100370000201815080930201809100018A3508F4C6
:1003800055CF80910201CDCF8091090110920801D3
:100390008636D1F13CF4823609F444C0209314012E
:1003A0005A9A19C08C36D1F08237C1F710920B01DE
:1003B00040930C01D0920D0120930E0130930F0158
:1003C00040931001D0921101A0921201609213018A
:1003D000909214015E9A10920A01E4CE10920B01E1
:1003E00020930C0130930D0140930E01D0920F0128
:1003F0002093100130931101809212017092130129
:10040000909214015D9AE7CF10920B0120930C019A
:1004100030930D0140930E01D0920F01A092140170
:100420005B9AD9CF10920B0140930C0130930D01D0
:1004300020930E01D0920F01A09214015C9ACBCFB1
:1004400097FB072E16F4009407D077FD09D00E9481
:100450003A0207FC05D03EF4909581959F4F089590
:10046000709561957F4F0895EE0FFF1F0590F491F1
:10047000E02D0994AA1BBB1B51E107C0AA1FBB1F9B
:10048000A617B70710F0A61BB70B881F991F5A9520
:10049000A9F780959095BC01CD010895F894FFCF00
:0804A000005AB4020304050632
:00000001FF
